:0200000280007C
:10000000102C0720ED0D0800E90D0800E90D08008F
:10001000E90D0800E90D0800E90D080000000000E6
:10002000000000000000000000000000E90D0800D2
:10003000E90D080000000000E90D0800E90D0800C6
:10004000E90D0800E90D0800E90D0800E90D0800B8
:10005000E90D0800E90D0800E90D0800E90D0800A8
:10006000E90D0800E90D0800000000005D0C080023
:10007000710C0800850C0800990C080000000000B5
:1000800000000000E90D0800E90D0800E90D080076
:10009000E90D0800E90D0800E90D0800E90D080068
:1000A000E90D080000000000E90D0800E90D080056
:1000B000E90D0800E90D0800E90D0800E90D080048
:1000C000E90D0800E90D0800E90D0800E90D080038
:1000D000E90D0800E90D0800E90D0800E90D080028
:1000E000E90D0800E90D0800E90D0800E90D080018
:1000F000E90D080010B5054C237833B9044B13B152
:100100000448AFF300800123237010BD1C0B0720AF
:1001100000000000645B08000C4B43B10C4810B5B4
:100120000C49AFF300800C48036823B910BD0A489E
:10013000036833B97047094B002BF7D0BDE8104076
:100140001847064B002BF5D0184700BF00000000F1
:10015000645B0800200B0720645B080000000000BF
:1001600030B4012404600024446040F20225C0F849
:100170002051C0F80441C0F8144145685200B1FB59
:10018000F2F2013A120292B22B431A434260204625
:1001900030BC7047436823F0100343604368194341
:1001A000416070474368D201D2B219430A434260AA
:1001B000704710B44468090601F0706121430A4396
:1001C000190701F040511143416010BC70470223F0
:1001D00003607047012303FA01F1016170474FF694
:1001E000FF73036170470000014B185C704700BF4C
:1001F0002C01072010B4401A019CE41A04FB00F003
:10020000521AB0FBF2F0184410BC704708B5024611
:1002100002490348034B984708BD00BF380B07202D
:10022000004009405108080030B585B02420174B24
:10023000984708B105B030BD154D00212846154B33
:100240009847154B019300240294144B039301A982
:100250002846134B984713490C818C720B234B6033
:10026000FF230B61CC600C6028460F4B98474FF47E
:1002700080324FF080510D480D4B9847214628465B
:100280000C4B984720460C4B9847D3E7950D080038
:10029000004009407708080018E4030000BD01058C
:1002A00009070800380B07204D07080000100E4012
:1002B000010A08006D0808000D02080038B5262064
:1002C0000C4B98470C4C20460C4B9847002120467D
:1002D0000B4B98470023012211462046094DA847A1
:1002E00000212046084B984700212046074B98479D
:1002F00038BD00BF950D080000800C40390608008D
:100300003F060800730608005B060800A106080007
:1003100010B582B040F6FF7300930023FF22194608
:10032000034CA04701460348034B984702B010BD59
:10033000F501080000800C40570608000C4BB3FB89
:10034000F0F00C4B18604FF400621C3B1A60502216
:10035000043B1A6003F5C0634FF480725A665A6515
:100360005A62C3F880201A6F22F480721A677047AD
:10037000D01B500020080E40024B186800F002000D
:10038000704700BF14080E40024B186800F00100CF
:10039000704700BF14080E40014B1860704700BF43
:1003A0001C080E40014B1878704700BF18080E401B
:1003B00010B50C460F4B9847E4B2430903F5001300
:1003C00003F207735B02012C0DD024B900F01F016A
:1003D00001228A405A6100F01F00012202FA00F057
:1003E000C3F8A00010BD00F01F0101228A401A616D
:1003F000F1E700BFE901080010B50C46C0B20B4B95
:100400009847430903F5001303F207735B0234B9FD
:1004100000F01F00012202FA00F0586310BD00F046
:100420001F00012202FA00F0186310BDE901080064
:1004300008B5C0B2094B9847430903F5001303F20E
:1004400007735B02DA6B00F01F00012303FA00F070
:10045000104214BF1846002008BD00BFE901080083
:1004600008B5014B984708BD0D02080008B5014BBF
:10047000984708BDFD08080038B50546074CA04759
:100480000028FCD02846064B9847044CA04700287B
:10049000FCD00A20024B984738BD00BF7903080002
:1004A0009903080038B50546034CA0470028FCD046
:1004B0002846024B984738BD790308009903080085
:1004C00008B5044B984708B9002008BD024B98476F
:1004D00008BD00BF89030800A503080010B5034C40
:1004E000A0470028FCD0024B984710BD89030800A4
:1004F000C104080030B585B00246094901A8094B7E
:1005000098479DF8040030B101AC074DA84714F896
:10051000010F0028FAD10D20044B984705B030BDDB
:100520008058080005110800A50408007904080097
:1005300008B5014B984708BD11030800F8B5002421
:10054000334D344F344E20E0344B9847582812D066
:1005500006D856280BD00CD8052808BF012414E073
:100560005A280CD009D35B2808BF06240DE00224CA
:100570000BE0032409E0042407E0052405E0072438
:1005800003E00620264B98470024072CFDD801A342
:1005900053F824F04905080083050800B505080054
:1005A000CB050800E1050800F1050800FB0508007F
:1005B00005060800A8470446A847A0F10A0149B269
:1005C0002046184B98470024DFE7A8470446A84771
:1005D000A0F10A0149B260B2134B98470024D4E756
:1005E000A84740B2114B9847C0B2B0470024CCE7AF
:1005F000A8470F4B98470024C7E7A8470D4B9847DB
:100600000024C2E7A847B847B0470024BDE700BFB1
:10061000DD0408006D040800F5040800C1040800AA
:1006200079040800B1030800F90308003104080048
:10063000610408003105080001230360704729B9EF
:10064000436823F01003436000207047436843F081
:1006500010034360F8E7016270474368012901D93C
:100660000120704723F4981343EA014141600020C0
:10067000704710B4446824F07C5424F47F44090289
:1006800089B221434AB921F400111B0603F07C53BF
:100690000B434360002010BC704741F40011F4E7A5
:1006A000012901D901207047012303FA01F10161F9
:1006B00000207047F0B48CB007460E4601AC114DD7
:1006C0000FCD0FC40FCD0FC495E8070084E80700D5
:1006D00001AA002352F8040BB6FBF0F0B0FBF7F0D0
:1006E000B0F5807F07D901330B2BF3D14FF6FF70A4
:1006F0000CB0F0BC70470A2B94BF40EA03204FF6C1
:10070000FF70F5E78458080070B506460D460C6882
:1007100044B1896820460C4B984704464FF6FF7356
:1007200098420CD0686840B1A968074B98474FF6CB
:10073000FF73984205D044EA004434600024204608
:1007400070BD0446FBE700BFB506080070B40A6838
:100750004B6803F00F038C8A23430C8923438C7A64
:1007600043EA44238C7D43EA0443CC7D43EA44437B
:100770000C7E43EA844300EB4214C4F80032CB6899
:10078000C4F804320B69C4F80C328B7D3BB18C8BFE
:100790004B8B43EA044300EB4214C4F81832856CD7
:1007A0004FF001139340DB431D40CC7F04FA02F667
:1007B0008C7F944044EA06442C438464446C234078
:1007C00091F8214004FA02F591F82040944044EA5F
:1007D0000544234343640123934091F8224034B3FA
:1007E000046A1C43046291F82440012C846E0CBFFF
:1007F0001C439C43846691F82540012C846E0CBFF9
:1008000044EA034324EA03438366032A14D9043ADF
:10081000D200046FFF23934024EA030491F82330AD
:1008200003FA02F222430267002070BC7047046A98
:1008300024EA03040462D6E7D500C36EFF24AC406B
:1008400023EA040391F82320AA401A43C266EBE787
:100850000B69934202D24FF6FF7070470B68CA6073
:1008600000EB4310C0F8082200207047012303FA70
:1008700001F141607047012303FA01F18160704783
:1008800038B52520134B9847134C0823134A1449B5
:100890002046144DA84701234FF440120021204662
:1008A000114DA84710212046104B9847072120469C
:1008B0000F4DA84706212046A84705212046A847F6
:1008C00020460C4B98470022114620460A4B984779
:1008D00038BD00BF950D080000000C4040420F00DD
:1008E00000BD010561010800B30108009501080081
:1008F000D5010800DF010800A501080038B504464D
:10090000044D2846044B9847143455F8240080B20F
:1009100038BD00BF00000C40CF01080010B50E48E4
:100920000E4B98473E2100200D4B98470D4CA04799
:100930000028FCD00C4B98470C4A0D4B9A620D4C8A
:10094000A0470028FCD010200B4B98470B4B984732
:100950000148024B984710BD00BD0105A5000720C6
:10096000110D0800650D0800750D0800013F0D20F0
:1009700000060E40850D0800AD0C0800850E08002D
:1009800010B54FF40042164B5A600B20154CA0478F
:100990000C20A0470D20A0470E20A0474FF060512B
:1009A0003B20114CA0474FF060515520A0474FF01D
:1009B00060515620A0470D496820A0470C495C2093
:1009C000A0470C4A4FF440710B480C4B98474FF02E
:1009D00000612B20A0474FF000612A20A04710BDE6
:1009E000501A0E40950D0800A10A08007900002851
:1009F0000100002801000008000E0E40710B0800E5
:100A00004264B1F1805F16D00BD849B1B1F1006FEB
:100A100005D1036F016F0B4023EA020303674260B5
:100A20007047B1F1405FFBD0B1F1605FF8D0B1F138
:100A3000205FF4D17047036F13430367EFE741640E
:100A400012F0010F14BF4166016612F00A0F14BFC5
:100A50000162416212F0020F07D112F0080F18BFB5
:100A6000C0F88410416101607047C0F88010F9E758
:100A700010B4019C416444B9016643B1016542B9B7
:100A800041630161016010BC70474166F5E7416553
:100A9000F5E70163F5E7C06C7047806C70470000B4
:100AA00070B582B00D46430903F5001303F20773D6
:100AB0005C0201F0F043B3F1205F31D016D8B3F1FE
:100AC000006F1BD0B3F1805F16D100F01F0001262C
:100AD000864032464FF080512046224B984715F011
:100AE000010F14BF66662666012017E0B3F1405F70
:100AF00021D0B3F1605F1ED000200FE000F01F0096
:100B00000126864032464FF000612046154B98473B
:100B100015F0010F14BF66662666012002B070BD95
:100B200000F01F0101262A4606FA01F120460E4B6D
:100B300098473046F2E705F0605200F01F010126A9
:100B400005EA06030093C5F38003B2F1605F14BFAA
:100B50000022012206FA01F12046044CA04730464B
:100B6000DCE700BF010A08003F0A0800710A08001C
:100B700070B582B005460E46144602F0F043B3F15C
:100B8000205F27D011D8B3F1006F16D0B3F1805F8A
:100B900011D10A464FF08051194B984714F0010FBC
:100BA00014BF6E662E66012012E0B3F1405F15D0CF
:100BB000B3F1605F12D000200AE00A464FF00061F6
:100BC0000F4B984714F0010F14BF6E662E6601207C
:100BD00002B070BD0B4B98470120F9E704F060525A
:100BE00004F001030093C4F38003B2F1605F14BF0B
:100BF0000022012231462846034CA0470120E7E7A6
:100C0000010A08003F0A0800710A08002DE9F041B6
:100C1000044688460E4B9847054620460D4B98479C
:100C2000054013D00C4C04F1600603E0B4420DD033
:100C300010345DB120684045F8D161682942F5D093
:100C4000E3689847636825EA0305EFE7BDE8F081AC
:100C5000970A08009B0A0800600B072008B50B21C3
:100C60000148024B984708BD000E0E400D0C0800CD
:100C700008B50C210148024B984708BD00100E40F2
:100C80000D0C080008B50D210148024B984708BD1E
:100C900000120E400D0C080008B50E210148024B51
:100CA000984708BD00140E400D0C0800174A136B3E
:100CB00023F0700318431063936E13F0080F0AD1EA
:100CC0004FF4006311498A6E12F0080F03D1013B03
:100CD000F9D1012070470D4A136B23F0030343F051
:100CE00002031363936E13F0080F0AD14FF40063ED
:100CF00006498A6E12F0080F05D1013BF9D1012097
:100D00007047002070470020704700BF00060E406B
:100D1000C8B9114A136A090289B223F45C1323F09B
:100D2000030343F45C1343F001030B431362936E1C
:100D300013F0010FFBD0084A136A43F09B7343F48E
:100D400080331362704704490B6A044A1A40044B0B
:100D500013430B62704700BF00060E40FCFFC8FE45
:100D600002003701024B986E00F48030704700BFDC
:100D700000060E404FF00052014B9A62704700BFD0
:100D800000060E40024B986E00F00200704700BF54
:100D900000060E402C281ED81F280CD8114B9A692B
:100DA00001238340934318D0012303FA00F00D4B35
:100DB00018610020704720380A4BD3F8082101231E
:100DC000834093430BD0012303FA00F0054BC3F893
:100DD000000100207047012070470020704700206C
:100DE000704700BF00060E40FEE7000008B51C4B30
:100DF0001C4A9A4210D01C4B194A9A420CD2013B11
:100E00009B1A23F0030304331344164951F8040BCF
:100E100042F8040B9A42F9D1144B154A9A420AD26D
:100E2000013B9B1A23F0030304331344002142F8CF
:100E3000041B9342FBD10F4B23F0604222F07F0250
:100E40000D498A6003F16043B3F5801F03D28B68BC
:100E500043F000538B60094B9847094B9847FEE7D6
:100E600000000720645B08001C0B07200C0C072007
:100E70001C0B07200000080000ED00E0191008001E
:100E8000D50F08003D4B1B6B03F00303032B0ED85B
:100E9000DFE803F0021C3838394B5B6913F0800F30
:100EA00014BF4FF400424FF4FA42364B1A60334BF2
:100EB0001B6B03F07003702B57D0304B1A6B31490A
:100EC000C2F302120B68D3400B6070472B4B1B6AB6
:100ED00013F0807F03D02C4A2A4B1A60E7E72B4A95
:100EE000284B1A60254B1B6A03F07003102B05D0AA
:100EF000202BDCD1244A234B1A60D8E7244A214B0B
:100F00001A60D4E71D4B1B6A13F0807F0CD01E4A79
:100F10001C4B1A60194B1B6B03F00303022B16D0FA
:100F20001C4A184B1A60C2E7184A164B1A60134B3A
:100F30001B6A03F07003102B05D0202BEAD1124A54
:100F4000104B1A60E6E7124A0E4B1A60E2E70B4AB2
:100F5000916A926A0B48C1F30A41036801FB0333AB
:100F6000D2B2B3FBF2F30360A1E7064A13680A4961
:100F7000A1FB03135B081360704700BF00060E401F
:100F8000101A0E4070010720001BB70000093D0039
:100F900000127A00001C4E0EABAAAAAA0A4B1B68CC
:100FA00053B1094B1B681A180849914208DB1046D7
:100FB000054A106018467047054A034B1A60F0E76F
:100FC0004FF0FF30704700BFD00B0720FC7F082098
:100FD000102C072008B5094B9847094B98474FF448
:100FE000E130084B9847084B9847084B9847084B07
:100FF0009847084B9847002008BD00BF1D0908000E
:10100000810908003D030800810808002902080042
:10101000BD0208003D05080070B50F4E0F4D761B50
:10102000B61018BF002405D0013455F8043B98478A
:10103000A642F9D10A4E0B4D04F07EFD761BB61088
:1010400018BF002406D0013455F8043B9847A64247
:10105000F9D170BD70BD00BF445B0800445B08005F
:101060004C5B0800445B080070B4860746D0541EF1
:10107000002A41D0CAB2034602E014F1FF343BD348
:1010800003F8012B9D07F8D1032C2ED9CDB245EAE8
:1010900005250F2C45EA054519D9264603F110020E
:1010A000103E0F2E42F8105C42F80C5C42F8085CCF
:1010B00042F8045C02F11002F2D8A4F1100222F00E
:1010C0000F0204F00F041032032C13440DD91E46F6
:1010D0002246043A032A46F8045BFAD8221F22F07B
:1010E00003020432134404F003042CB1C9B21C44BB
:1010F00003F8011B9C42FBD170BC704714460346A9
:10110000C2E700BF0EB40146F0B56FF000454FF4E2
:1011100002774FF6FF769CB021AC54F8042B0B4BB2
:1011200002910691186802A923460194ADF8147043
:1011300004950795ADF8166000F038F80022029B80
:101140001A701CB0BDE8F04003B07047740107206E
:1011500020F0030110F00300C0F1000051F8043B3F
:1011600000F1040C4FEACC0C6FF000021CBF22FA15
:101170000CF213434FF0010C4CEA0C2C4CEA0C4CD3
:10118000A3EB0C0222EA030212EACC1204BF51F8CC
:10119000043B0430F4D0C2F1000102EA0102B2FAC9
:1011A00082F2C2F11F0200EBD20070472DE9F04F2E
:1011B000C3B00C460B9192460F930C9002F08AFB41
:1011C000036818461A93FFF7C3FFA38919901906FD
:1011D00003D52369002B01F0318000230DF1C809EC
:1011E000C84614931393159318931B93099316935E
:1011F000179327932693CDF894909AF8003054468D
:10120000EBB1252B02D11AE0252B03D014F8013FB6
:10121000002BF9D1A4EB0A058DB1269B279A013347
:101220002A44072BC8F800A0C8F804502792269338
:1012300000F38A8008F10808099B2B44099323785E
:10124000002B00F0898000234FF0FF301A468DF804
:10125000773019460D939B46637804F1010A0A9092
:101260000AF1010AA3F12000582800F2B683DFE852
:1012700010F04B03B403B4035303B403B403B40337
:10128000B403B403B40359005803B4036600140252
:10129000B4032F02A403A403A403A403A403A4037C
:1012A000A403A403A403B403B403B403B403B403B6
:1012B000B403B403B403B403B4038B02D302B40382
:1012C000D302B403B403B403B4031A03B403B403E2
:1012D0001F03B403B403B403B403B4033402B4036C
:1012E000B4034B02B403B403B403B403B403B403B0
:1012F000B403B403B403B40376029D03D302D30250
:10130000D30262039D03B403B4036703B4037403FD
:10131000DD018B035D03B403F201B4038700B40362
:10132000B40331030F9C236818460D93234600280D
:1013300003F104030F9304DA0D9B5B420D934BF012
:10134000040B9AF800308BE725AA0B990C9803F050
:101350006FFB40B9C8466FE7279B23B10C9825AABD
:101360000B9903F065FB0B9B9B8913F0400F099BC6
:1013700018BF4FF0FF330993099843B0BDE8F08FD1
:101380001BF0200F119340F0AF810F9A1BF0100F4C
:10139000134640F096851BF0400F00F09285002523
:1013A0000123148804320F92002217468DF877200B
:1013B0000A994A1C00F010822BF08002079254EA2E
:1013C000050240F00F82002940F02D84002B40F0F0
:1013D00035851BF001030E9300F05E86302342AE8C
:1013E00006F8413D0A9B0E9A9342B8BF13460893F4
:1013F0000023129317B1089B01330893079B13F046
:101400000203109302D0089B02330893079B13F04A
:10141000840540F00E830D9B089AA3EB020BBBF1F1
:10142000000F40F30683BBF1100F40F3AE87279CFB
:1014300043462146A8461027269A0C9C0B9D06E0A1
:10144000ABF1100BBBF1100F03F1080318DD0132F3
:10145000AB481031072A2791269283E88100EFDDFF
:1014600025AA2946204603F0E3FA00287FF47BAF43
:10147000ABF1100BBBF1100F4B462799269AE6DC17
:1014800045460C46984601329D4B5C44072A2794FA
:10149000269288E8080800F3C1829DF8777008F169
:1014A000080887B10121269B0C440B440DF17702FB
:1014B000072B27942693C8F80410C8F8002000F3DF
:1014C000C98308F10808109B7BB10221269B0C44BC
:1014D00001331EAA072B27942693C8F80410C8F8D6
:1014E000002000F30D8408F10808802D00F001832E
:1014F0000A9B0E9A9F1A002F37DD102F40F3758636
:10150000804D42462146B0464FF0100B2E46269B9A
:101510000C9C0B9D04E0103F102F02F1080215DD1A
:1015200001331031072B2791269382E84008F2DD22
:1015300025AA2946204603F07BFA00287FF413AF42
:10154000103F102F4A462799269BE9DC35460C466A
:101550004646904601333C44072B2794269388E85F
:10156000A00000F36C8308F10808079BDF0500F179
:101570006282269B0E9901330C44072B2794C8F8EE
:101580000060C8F80410269300F3AF8308F1080840
:10159000079B5B073BD50D9B089A9D1A002D36DDF6
:1015A000102D40F31D871026269B0C9FDDF82CB0D4
:1015B00004E0103D102D08F1080816DD0133504AF3
:1015C0001034072B2794269388E84400F1DD25AAE0
:1015D0005946384603F02CFA00287FF4C4AE103D7B
:1015E000102DC846279C269BE8DC0133444A2C4436
:1015F000072B2794269388E8240008DD25AA0B9959
:101600000C9803F015FA00287FF4ADAE279C099BD7
:101610000D9A08998A42ACBF9B185B180993002C5D
:1016200040F0F7820023C8462693E6E511931BF0AD
:10163000200340F044811BF0100240F062841BF054
:10164000400300F05E840F9913460A4604320C886A
:1016500000250F92A8E600250F9A119316688DF8C1
:101660007750141D002E00F0C9860A9A531C00F012
:1016700017862946304602F0F3FB002800F0098760
:10168000831B0A950E930F94CDF81CB023EAE373E5
:10169000089312959DF87770ACE69AF800300AF13D
:1016A00001042A2B00F0BD87A3F130000928A246CF
:1016B00000F2148700231C461AF8013B04EB840453
:1016C00000EB4404A3F130000928F5D90A94C9E5D8
:1016D0004BF0800B9AF80030C2E54BF0100B1BF07A
:1016E000200F11933FF451AE0F9C073424F00703F1
:1016F00003F10802D3E900450F92012354E600BF2D
:10170000F8580800085908001193002A40F0A887EB
:10171000BD4B1BF0200F189340F0E6800F9A1BF092
:10172000100F134640F0D4831BF0400F00F0D0831D
:101730000025043314880F931BF0010F00F0E280A2
:1017400054EA050300F0DE8030239DF844208DF834
:1017500078308DF879204BF0020B022324E6012229
:101760001193002311460F98089202681F468DF8C6
:1017700077300A931293031DCDF81CB00E918DF8AB
:10178000A0200F9328AE39E61193002A40F07F87FE
:101790004BF0100B1BF0200F40F071840F9A1BF0E0
:1017A000100F134640F099831BF0400F00F0958313
:1017B000B2F900400433E5170F9322462B46002A66
:1017C00073F10003C0F294830A999DF877704A1C64
:1017D0004FF001037FF4F0AD54EA050200F02582DA
:1017E000CDF81CB0012B00F00A83022B40F0988248
:1017F0004E461898230943EA0573290904F00F029D
:101800000D461C46835C06F8013D54EA0503F1D100
:10181000A9EB06030E93E5E51193002A40F0338708
:101820000F9C1BF0080F04F1070400F0CB8424F098
:10183000070303F108020F921A685B68149215936C
:10184000159B149D23F00044284621464FF0FF329B
:101850006E4B03F04FFE002840F0308428462146AE
:101860004FF0FF32694B03F027FE002840F026843A
:1018700014A80FC803F016FE002840F0D1859DF88B
:10188000777003231A460893002319460A93604E83
:10189000604B0E92119A2BF0800007901291472A0C
:1018A000D8BF1E46A6E54BF0080B9AF80030D7E4E7
:1018B0004BF0100B11931BF020033FF4BCAE0F9CB8
:1018C000073424F0070303F10802D3E900450F921F
:1018D000002369E51193002A40F0BE864E4B1BF0B1
:1018E000200F18933FF41AAF0F9C1BF0010F04F167
:1018F000070424F0070303F108020F92D3E900451F
:101900007FF41EAF02234FE59AF8003000297FF4E0
:10191000A7AC01222021A3E44BF0010B9AF8003080
:101920009EE49AF8003001222B2199E44BF0200B21
:101930009AF8003094E44BF0400B9AF800308FE4B2
:101940009AF800306C2B03BF9AF801304BF0200B53
:101950000AF1010A4BF0100B82E4002A40F078866D
:101960001BF0200F40F04F841BF0100F40F0358427
:101970001BF0400F00F031840F9A136804320F926D
:10198000BDF824201A8038E4782330220F988DF88F
:1019900079301193031D0F931F4B046818934BF07C
:1019A000020B8DF8782000250223FDE41193002A14
:1019B0003FF4F0AE8DF87710ECE600200446A3F17A
:1019C00030001AF8013B04EB840400EB4404A3F15B
:1019D00030000928F5D90D9444E41193002A40F011
:1019E0004686119A002A3FF4B7AC002301211F4616
:1019F00008918DF8A020CDF81CB08DF877300A93AF
:101A000012930E9128AEF9E4C4580800FFFFEF7F4F
:101A1000B8580800B4580800D858080025AA0B99EF
:101A20000C9803F005F800287FF49DACC8469DF89B
:101A30007770279C35E5119B652B40F3998014A89E
:101A40000FC803F025FD002800F092810121269B9C
:101A5000B44A0B440C44072B27942693C8F804106F
:101A6000C8F8002000F3C58308F108081F9B139AEB
:101A7000279C934203DB079BDD077FF589AD269BFF
:101A8000199901331A9A0C44072BC8F80020C8F89A
:101A900004102794269300F3C38308F10808139BCE
:101AA0005E1E002E7FF774AD102E40F37485224623
:101AB0001027269B9C4DDDF830B00B9C05E008F10B
:101AC0000808103E102E40F3248201331032072BF9
:101AD0002792269388E8A000F1DD25AA21465846E2
:101AE00002F0A6FF00287FF43EACC846279A269B4A
:101AF000E7E70D9B089A9F1A002F7FF7F9AC102F8C
:101B000040F3A784884D42462146B0464FF0100B63
:101B10002E46269B0C9C0B9D04E0103F102F02F1DB
:101B2000080215DD01331031072B2791269382E837
:101B30004008F2DD25AA2946204602F079FF002858
:101B40007FF411AC103F102F4A462799269BE9DC01
:101B500035460C464646904601333C44072B2794B5
:101B6000269388E8A00000F39D8208F10808BFE4EE
:101B7000139B012B40F34E820123269F1C441F44DC
:101B8000072F2794C8F800602697C8F8043000F3A0
:101B90005E8208F10808199A01371A9B1444072F2E
:101BA00027942697C8F80030C8F8042000F35B8219
:101BB00008F1080814A80FC803F06AFC139B00285A
:101BC00040F04181013B013701361C44072FC8F822
:101BD000006026972794C8F8043000F3668108F166
:101BE00008081B9A0137144421AB072F2794269726
:101BF000C8F80420C8F800307FF7C8AC25AA0B99B4
:101C00000C9802F015FF00287FF4ADABC846279C66
:101C1000BEE425AA0B990C9802F00AFF00283FF4B5
:101C200001ADFFF7A0BBDDF81CB0012B00F07E81F9
:101C3000022B71D1CDF81CB000240025D8E525AACF
:101C40000B990C9802F0F4FE00287FF48CABC84688
:101C5000279C8AE425AA0B990C9802F0E9FE00283B
:101C60007FF481ABC846279C2DE40120269B2D4A9A
:101C700003440444072B27942693C8F80400C8F8AB
:101C8000002040F3D88225AA0B990C9802F0D0FED0
:101C900000287FF468ABC8461F99279C29B9139B7D
:101CA0001BB9079BD8077FF573AC1998269B024692
:101CB000013322441A9C072B2792C8F80040C8F829
:101CC0000400269300F3318408F108080029C0F2CB
:101CD0000984139901338C18072B27942693C8F88D
:101CE0000060C8F804107FF751AC25AA0B990C9836
:101CF00002F09EFE00287FF436AB279CC84647E4DE
:101D000025AA0B990C9802F093FE00287FF42BABC8
:101D1000C846279CFFF7E9BB00240025CDF81CB07E
:101D2000494604E0F4580800085908003146E20822
:101D300042EA4572E80804F00703054614463033CA
:101D400054EA050201F8013C01F1FF36EED1079A91
:101D5000D2077FF55DAD302B3FF45AAD3023023909
:101D600006F8013CA9EB01030E930E46FFF73ABBC0
:101D70001F9900297FF779AF129B139A9342A8BF4E
:101D80001346002B1F460BDD269B3C440133072BDB
:101D9000279488E8C000269300F3FB8208F1080826
:101DA000129B002FA8BFDB1B002B1F4640F3D780E0
:101DB000102B40F33384BA4D42462146B0464FF0D3
:101DC000100B2E46269B0C9C0B9D04E00832103F06
:101DD000102F40F3B58001331031072B2791269344
:101DE00082E84008F2DD25AA2946204602F020FEBE
:101DF00000287FF4B8AA4A462799269BE7E7002DDA
:101E000008BF0A2CC0F090804E46204629460A2280
:101E1000002303F0ADFB303206F8012D20462946A1
:101E200000230A2203F0A4FB04460D4654EA0503EE
:101E3000EBD1A9EB06030E93FFF7D4BA0A9B4E46EB
:101E40000E93FFF7CFBA5E1E002E7FF7CAAE102E9C
:101E500040F3E28322464FF0100B914D0C9C04E0BE
:101E6000103E102E08F1080815DD01371032072F3B
:101E70002792269788E82008F2DD25AA0B992046AC
:101E800002F0D6FD00287FF46EAA103E102EC84640
:101E9000279A269FE9DC144601373444072F2794FC
:101EA000269788E860007FF79AAE25AA0B990C98D0
:101EB00002F0BEFD00287FF456AA279C269FC84644
:101EC0008FE604321C68002501230F92FFF76CBADD
:101ED0001C6804330F9300252EE41C680433E517B7
:101EE00022460F932B46002A73F10003BFF66CAC19
:101EF0002D27644265EB45058DF877700123FFF7C8
:101F000057BA0F9900250A4604320C680F92FFF762
:101F10004BBA144601333444072B2794269388E8A0
:101F200060007FF733ABE0E6DDF81CB0012342AE82
:101F30003034CDF81CB006F8414D0E93FFF752BA7D
:101F400035460C464646904601333C44072B2794C1
:101F5000269388E8A00000F3468208F108081F9A3B
:101F6000139B9A4245DB079BD90742D4139B1298D7
:101F70009A1A1D1A9542A8BF1546002D0EDD269906
:101F8000064401312C440729C8F800602794C8F89A
:101F90000450269100F3168208F10808002DB4BF02
:101FA0001646561B002E7FF7F3AA102E40F3F3823D
:101FB00022461027269B3A4DDDF830B00B9C04E0FA
:101FC00008F10808103E102EA3DD01331032072B54
:101FD0002792269388E8A000F2DD25AA21465846DC
:101FE00002F026FD00287FF4BEA9C846279A269B4A
:101FF000E8E7269B199801331A990444072B279484
:10200000C8F80010C8F80400269300F3CF8108F147
:102010000808ABE7079BDA073FF5AEAD0123269F23
:102020001C441F44072F2794C8F800602697C8F85F
:1020300004307FF7D4AD25AA0B990C9802F0F8FC78
:1020400000287FF490A9C846279C269FC9E525AAA9
:102050000B990C9802F0ECFC00287FF484A9C84688
:10206000279C269F97E525AA0B990C9802F0E0FC87
:1020700000287FF478A9C846279C269F9AE50F9CE4
:10208000073424F0070404F10801D4E900230F9178
:1020900014461D46FFF793BB4E46FFF7A3B900BF9A
:1020A0000859080025AA0B990C9802F0C1FC0028D9
:1020B0007FF459A9C846279CFFF71ABA149C2246F8
:1020C0002046159C2346214603F014FA002840F0D0
:1020D00073820A9B0133119B23F020030E9300F0BF
:1020E0009C81472B00F0D6804BF480730793159B9F
:1020F0001F1E149B0893B7BF3B46002303F1004704
:102100002D231093119B662B00F09081462B00F03D
:10211000A48002200E9B23A9452B0ABF0A9B0A9D7F
:102120005D1C8DE82100049120A81FA93B46039067
:10213000089A02910C9800F05BFB119B0646672BF6
:1021400040F0BA811BF0010F00F023827419169A37
:102150000898179B394603F09BF9002840F024812A
:10216000239BA34206D230215A1C23921970239B31
:102170009C42F9D89B1B13930E9B472B00F0A28027
:10218000119B652B40F3A781119B662B1F9B12931C
:1021900000F07181139B129A1946914200F35D8100
:1021A0001BF0010F40F0F08122EAE27308936723ED
:1021B0000E921193109B002B7DD10A939DF877709E
:1021C000FFF718B924F00704236814936368159384
:1021D00004F108030F93FFF733BB0F9A136804321F
:1021E0000F92099A1A60FFF708B8269BAF4DFFF7C8
:1021F000B1B925AA0B990C9802F01AFC00287FF4BB
:10220000B2A8C84632E40F9A134604330F93099BD1
:102210001168DD171A462B46C1E90023FEF7EDBF12
:1022200025AA0B990C9802F003FC00287FF49BA8C8
:10223000C846279C33E408F108082FE540210C9894
:1022400001F056FB0B9A10601061002800F0138219
:1022500040230B9A5361FEF7C0BF03200A9C23A9B9
:102260008DE81100049120A81FA90390089A3B460D
:1022700002910C9800F0BCFA25460646119B741991
:10228000462B7FF464AF3378302B00F087811F9D9D
:102290002C445CE70A9B002B08BF01230A9323E729
:1022A00030460A95FEF754FF0F940E90CDF81CB0FF
:1022B0000346FFF7EBB92D2700238DF877700A93BB
:1022C000FFF799B81F9B1A461293033304DB0A9B4E
:1022D00019469142BFF65EAF119B023B1193129BD0
:1022E0009DF84420013B002B8DF88420B4BF2D22A3
:1022F0002B221F93B8BF129B8DF88520B8BFC3F166
:102300000103092B40F31F810DF193000146684C36
:1023100000E0114684FB0352DD17C5EBA20505EB77
:102320008502A3EB42023032092D01F8012C2B4625
:1023300001F1FF32EDDC30330239DCB2884202F8C1
:10234000014C40F291810DF18601134601E013F832
:10235000014B834201F8014BF9D101339B1A0DF176
:102360008602134421AA9B1A139A1B93012A134431
:102370000E9340F347810E9B199A13440E9323EA60
:10238000E37308930023129314E7279C269AFFF720
:102390007AB825AA0B990C9802F04AFB00287EF423
:1023A000E2AFC846279CFBE42346E3E625AA0B9947
:1023B0000C9802F03DFB00287EF4D5AFC8461F9A6A
:1023C000279CD3E525AA0B990C9802F031FB002835
:1023D0007EF4C9AF1F9A139BC846279C9A1ADDE565
:1023E000269BFFF702B925AA0B990C9802F020FB57
:1023F00000287EF4B8AFC846279CB0E50A9B374654
:10240000062B28BF06230A96129608930F94CDF840
:102410001CB00E93274EFEF7EDBF06230A9363E62A
:102420002D231F468DF87730FFF72BBA03200A9C27
:1024300023A98DE81100049120A81FA90390089AF0
:102440003B4602910C9800F0D3F925460646041944
:1024500019E7269B154DFFF77FBB199A139B134471
:10246000129A0E93002A40F3C68023EAE37308937E
:10247000672311939EE6002B40F3E0800A9A002A1E
:1024800040F0AF801BF0010F40F0AB8008930E933B
:1024900090E60A9B0F9408930E930A90CDF81CB017
:1024A00012909DF87770FEF7A5BF00BF085908008D
:1024B00067666666EC580800119B472B7FF446AEB2
:1024C0001BF0010F7FF4DAAE239B9B1B13930E9B33
:1024D000472B3FF4F7AE1F9B129300E700200A90B2
:1024E000FEF7C0BE4F42103135DA10246A4DDDF8D8
:1024F00030B004E008F10808103F102F2CDD013344
:102500001032072B27922693C8F80050C8F80440D1
:10251000F0DD25AA0B99584602F08AFA00287EF4CD
:1025200022AFC846279A269BE6E725AA0B990C9866
:1025300002F07EFA00287EF416AFC8461F99279A4B
:10254000269BFFF7C3BB302213448DF887308DF8EC
:10255000862022AB06E7504D01333A44072B88E82A
:10256000A0002792269308F108087FF7B2AB25AAAE
:102570000B990C9802F05CFA00287EF4F4AEC84681
:10258000279A269BFFF7A5BB129B199A13440E931B
:102590006BE7239BEEE5269B3F4DBBE4169A08981C
:1025A000179B394602F074FF00287FF470AEC5F126
:1025B00001051F952C44CAE503231A4608930023FE
:1025C00019460A93354E364B0E92119A2BF0800025
:1025D00007901291472AD8BF1E469DF87770FEF7E4
:1025E00009BF129B199A13440A9A1A4422EAE27309
:1025F0000E920893DEE5129B0E9AC3F101031A4472
:102600001346C4E71BF0010312937FF4B4AE0E9B94
:1026100023EAE3730893CDE51F4D3DE4269B1E4D51
:1026200092E40F9D9AF801302868A24640EAE070D3
:102630000A90284604300F90FEF712BE0A9B13B989
:102640001BF0010F02D0199B0133CDE701231DE7D9
:102650008DF87710FFF784B98DF87710FFF73EB942
:102660008DF87710FFF754B80DF186037AE68DF8F0
:102670007710FFF7B6B94FF0FF320C2309920C9A8E
:102680001360FEF779BE8DF87710FFF7C9B88DF8A3
:102690007710FFF77DB800BF08590800C058080040
:1026A000BC580800024B13B1024800F005B870474F
:1026B0000000000035360800002301461A4618467F
:1026C00002F040BA2DE9F04F03690F6983B09F42D1
:1026D00000F38880013F01F1140600F1140A56F856
:1026E00027305AF827200133B2FBF3F8BB000093E0
:1026F00006EB030953440193B8F1000F3BD00023CC
:10270000B4461C46D6465CF8042BDEF800501FFA8F
:1027100082FB08FB0B33120C4FEA134B08FB02BB86
:102720009AB2A21AABB21FFA8BF41A44C4EB154446
:1027300004EB224492B242EA0442E1454EF8042BF3
:102740004FEA24444FEA1B43DDD2009B5AF8033082
:102750008BB9019C231F9A450CD254F8043C4BB909
:10276000A4F1080302E01A68043B1AB99A4507F17C
:10277000FF37F8D30761044601F094FE00282DDBF3
:102780005546002308F1010856F8041B28688AB250
:102790009A1A0B0C81B20A44C3EB104303EB224399
:1027A00092B242EA0342B14545F8042B4FEA234373
:1027B000EAD25AF827200AEB87037AB91A1F924502
:1027C0000BD253F8042C42B9083B02E01A68043BD0
:1027D0001AB99A4507F1FF37F8D32761404603B08D
:1027E000BDE8F08F002003B0BDE8F08F00000000CE
:1027F0002DE9F04F056C9BB0044692469B46279E00
:102800004DB10123426C29469340AB606A6001F0F0
:1028100071FC00232364BBF1000F5D4635DB002310
:1028200033609D4BAB4315D00022002350465946E0
:1028300002F02EFE804600282DD00123269A136038
:10284000289B002B00F0BD809448186001381BB015
:10285000BDE8F08F42F20F73269A1360BAF1000FB1
:102860000DD1C5F3130555B9289B8D48002BEED02B
:1028700000F10803289A13601BB0BDE8F08F289B75
:102880008848002BE3D0C31CF4E701232BF000455C
:102890003360AB46C5E718AA19AB019200935246C4
:1028A0005B46204601F0A8FE2B0D814671D05046B4
:1028B000CBF3130242F07F51189FA3F2FF36CDF8FD
:1028C000508041F440110022774B02F0C5F96CA30F
:1028D000D3E9002302F074FB6BA3D3E9002302F0D9
:1028E000BDF9CDE90201304602F004FB68A3D3E94B
:1028F000002302F065FB02460B46DDE9020102F00F
:10290000ADF9CDE9040102F00BFE00220290002394
:10291000DDE9040102F0C6FD002840F06D81029D52
:10292000162D00F257816149524601EBC5015B4605
:10293000D1E9000102F0D4FD002800F0BE816B1E39
:10294000029300230E93BF1B7B1E089300F14E8160
:1029500000230A93029B002BC0F23F81089A0D933B
:1029600011461944002308910C93249B092B2AD863
:10297000052B40F358860025043B2493249B023BFF
:10298000032B00F23F86DFE813F0CE03C302D90326
:102990005B04189F199E3E4406F23243202B40F3FD
:1029A0008781C3F1400306F212409D402AFA00F0ED
:1029B000284302F08FFA0123013E1493A1F1F8712C
:1029C00081E73B4843E7002120466164259101F0FF
:1029D0006BFB4FF0FF3307930F930123259A04906D
:1029E000206424920B93199B002BC0F2D380029A8F
:1029F0000E2A00F3CF802D4B03EBC203D3E9002353
:102A0000CDE90823259B002BC0F2B483DDE90856ED
:102A100050462A463346594602F0FCFB02F080FD40
:102A2000804602F067FA2A46334602F0C9FA0246A7
:102A30000B465046594602F00FF9079E049F08F1D5
:102A40003005012E3D7002460B4607F1010564D0AA
:102A50000022184B02F0B4FA0022002306460F466B
:102A600002F016FD002840F08280CDF828904FF04B
:102A7000000ADDE908894FF0000B0B9429E000BF44
:102A800061436F63A787D23FB3C8608B288AC63F74
:102A9000FB799F501344D33F0000F07FF5580800A6
:102AA00018590800245908000000F83F6059080030
:102AB000F4580800000024400022814B02F080FA04
:102AC00052465B4606460F4602F0E2FC002840F004
:102AD000BA8342464B463046394602F09BFB02F031
:102AE0001FFD044602F006FA42464B4602F068FA21
:102AF00002460B463046394602F0AEF804F1300685
:102B000005F8016B049E079FAE1BBE4202460B46B2
:102B1000D2D1A046DDF828900B9C1046194602F051
:102B20009DF806460F4602460B46DDE9080102F015
:102B3000B9FC48B9DDE9080132463B4602F0A8FC81
:102B4000A8B118F0010F12D015F8018C6B1E049A71
:102B500004E09A4200F0028413F8018DB8F1390FB5
:102B600003F10105F5D008F1010883F8008049461A
:102B7000204601F0BFFA0022029B2A70269A0133F8
:102B80001360289B002B00F09F8304981D601BB0EE
:102B9000BDE8F08F0B9A002A3ED0249A012A40F318
:102BA0001183079B0C9A5F1EBA42C0F29083D71B19
:102BB000079B002BC0F28C840A9D079B0A9A012177
:102BC0001A440A92089A20461A44089201F02EFBF1
:102BD000064623E001230E93B5E600230A9A0D93DF
:102BE000029BD21A5B420A920C93BEE6C7F1010324
:102BF0000A9300230893ADE6029D284602F07AF975
:102C000002460B46DDE9040102F042FC00287FF495
:102C100086AE6B1E029382E60AADE0CD002D0CDD80
:102C2000089900290B4608DDA942A8BF2B460A9A3D
:102C3000ED1AD21ACB1A0A9208930C9BD3B10B9BB4
:102C4000002B00F0B882002F10DD31463A462046B6
:102C500001F088FB4A4601460646204601F0F0FA9C
:102C6000034649462046994601F044FA0C9BDA1B7C
:102C700040F0A2820121204601F0D8FA0D9B804647
:102C8000002B1FDD01461A46204601F06BFB249BFA
:102C90008046012B40F3558200230C93D8F8103066
:102CA00008EB8303186901F071FAC0F1200013E00A
:102CB000C3F120050AFA05F07BE60E9043E600BF5B
:102CC00000002440249B012B40F3858200230C93B9
:102CD0000D9B0120002BE1D1089A104410F01F0039
:102CE00000F0A180C0F12003042B40F386840A9BEE
:102CF000C0F11C0003440A9313460344054408939F
:102D00000A9B002B05DD49461A46204601F07AFB56
:102D10008146089B002B05DD41461A46204601F0FE
:102D200071FB80460E9B002B40F08680079B002B9A
:102D300040F364820B9B002B00F09880002D05DD92
:102D400031462A46204601F05DFB06460C9B002BCF
:102D500040F036830896079B049A013BD3180B93E7
:102D600017460AF00103C246DDF820B00C93514625
:102D70004846FFF7A7FC31460546484601F092FB5E
:102D80005A4607905146204601F0A8FBC26880468B
:102D900005F13003002A40F02982014648460A9393
:102DA00001F080FB41460890204601F0A3F9089A03
:102DB0000A9B32B9249921B90C9A002A00F0EE83BB
:102DC000249A07990029C0F29F8205D1249919B944
:102DD0000C99002900F09882002A00F305830B9AD1
:102DE00007F1010897423B70454600F00B834946C6
:102DF00000230A22204601F087F95E4581463146CC
:102E00004FF000034FF00A02204600F0E98101F084
:102E10007BF95946064600230A22204601F074F940
:102E200047468346A3E71C200A9B054403440A93B4
:102E3000089B0344089363E74146484601F032FB90
:102E40000028BFF673AF029F494600230A2220469E
:102E5000013F029701F058F90B9B8146002B40F08F
:102E6000B5830F9B002B40F3BE830793DDF810A0C2
:102E7000079F554606E0494600230A22204601F0F6
:102E800043F9814641464846FFF71CFC303005F8BF
:102E9000010BA5EB0A03BB42EDDB049B079A8246BC
:102EA000012AACBF9B1801334FF0000B1D46494669
:102EB0000122204601F0A6FA4146814601F0F2FACD
:102EC000002840F33F8215F8012C6B1E049904E0A2
:102ED0008B4200F0AE8113F8012D392A03F1010570
:102EE000F6D001321A704146204601F003F9002E57
:102EF0003FF43DAEBBF1000F05D0B34503D05946BA
:102F0000204601F0F7F83146204601F0F3F82EE6AE
:102F100000230B93029B259A13440F930133012B3B
:102F20001F461E46B8BF012707930021172F616473
:102F30000AD9012204235B0003F1140087421146E1
:102F400002F10102F7D26164204601F0ADF80E2EC5
:102F5000049020643FF647AD002D3FF444AD029944
:102F6000CDE910AB002940F30382B94B01F00F0209
:102F70000D1103EBC203E906D3E9006740F1AF810D
:102F8000B44B5046D3E90823594602F043F94FF0B9
:102F9000030ACDE9120105F00F058DB1DFF8B48207
:102FA000EA0709D5D8E900233046394602F008F887
:102FB00006460F460AF1010A6D1008F10808EFD124
:102FC0003B46DDE91201324602F024F90746884605
:102FD0000E9B43B10022A04B3846414602F062FAF4
:102FE000002840F08782504601F084FF3A4643466D
:102FF00001F0E6FF994B002201F030FE079B0546E9
:10300000A1F15076002B00F03F81029B1593079BA6
:1030100012930B9B002B00F0FB81129A8C4B00202B
:1030200003EBC20353E902238D4902F0F3F82A4669
:10303000334601F011FE82468B463846414602F087
:103040006FFA054601F056FF02460B4638464146E8
:1030500001F002FE30355FFA85F8049D06460F4602
:1030600085F8008002460B4650465946013502F06D
:1030700037FA002854D132463B460020764901F009
:10308000EBFD02460B465046594602F029FA00284D
:1030900040F07082129A012A00F01281129B049A69
:1030A000CDF84890134499460FE032463B46002045
:1030B000694901F0D1FD52465B4602F0F3F9002860
:1030C00040F056824D4500F0F980504659460022A6
:1030D000644B01F075FF0022624B82468B463046FE
:1030E000394601F06DFF0F46064602F019FA804698
:1030F00001F000FF02460B463046394601F0ACFDB8
:1031000008F130085FFA88F805F8018B52465B46F3
:1031100006460F4602F0C6F90028C6D0DDF84890F2
:10312000159B029323E500230B93259B002B40F373
:10313000DD801F461E460F930793F6E601230B938F
:10314000F3E7BAF1000F7FF4A7ADCBF31303002B25
:103150007FF4BCAD2BF000473F0D3F05002F00F082
:103160000D820A9B01330A93089B013308930123C4
:103170000C93ADE5079B002B3FF748AC40F0228253
:10318000DDE908010022384B01F01AFF52465B4688
:1031900002F09CF9DDF81C804646002841D0259BB2
:1031A000049DDB4302934146204600F0A3FF002E1E
:1031B0003FF4DDACA7E60C9A4946204601F0D2F870
:1031C000814657E5149A002A00F0888103F23343C0
:1031D0000C9F0A9DF2E4BAF1000F7FF477ADB4E7DB
:1031E00000F092FF474606468346C0E5014620466A
:1031F000089300F07FFF0122089BE2E5249B022B4D
:103200007FF798AD079B002BC9D141460522204688
:1032100000F07AFF01468046484601F043F9002855
:10322000BDDD3123029A0499013202920B704D1CCC
:10323000B9E73123029A01320292049A137052E6DE
:1032400001230B9366E6DDF828900B9C8FE400BF0A
:1032500060590800385908000000F03F00001C4089
:103260000000E03F0000244000001440504601F000
:1032700041FE3A46434601F0A3FE0022C14B01F055
:10328000EDFC0546A1F1507641460022BE4B384682
:1032900001F0E2FC2A46334682468B4602F020F9D2
:1032A0008046002840F010812A4606F1004350462F
:1032B000594602F0F7F818B1464670E7DDF8489035
:1032C000DDE910ABFFF78FBB0498FFF7C0BA0C9B8A
:1032D0000D9AFB1A1A440C970D92002768E4DDE959
:1032E00010234FF0020ACDE9122356E600210123F4
:1032F00020466164259300F0D7FE259B0490079338
:10330000259B20640F9327E6002AD046CDF820B0F5
:103310009A4611DD49460122204601F073F84146E4
:10332000814601F0BFF8002840F34581BAF1390F1A
:1033300000F0058105F1310AB34687F800A07D1C35
:10334000089ED0E504D11AF0010F01D0BBE5154667
:1033500015F8013C6A1E302BF9D0C4E530220499DF
:103360000A70029A15F8018C01320292FFF7FBBB3A
:1033700000F0BB80DDE91001029B4FF0020A5D42C4
:10338000824B05F00F0203EBC203D3E9002301F0E7
:1033900017FE2D11074688463FF41AAE7C4EEB0708
:1033A00009D5D6E900233846414601F009FE074613
:1033B00088460AF1010A6D1006F10806EFD107E60A
:1033C0007168204600F070FE0546336906F10C0175
:1033D00002339A000C3000F089FD29460122204674
:1033E00001F010F80890B6E4392BCDF820B0D046A3
:1033F00000F0A58003F1010AB34687F800A07D1C08
:10340000089E70E55A46D046B3469A4616464EE5A3
:1034100012985E492A4601EBC001334651E9020188
:1034200001F0CEFDCDE916013846414602F078F8AC
:10343000054601F05FFD02460B463846414601F065
:103440000BFC06461298049A3035012815700F4679
:1034500002F1010526D0129B049ACDF8489013443E
:103460004FF0000A9946DFF830B152465B463046CD
:10347000394601F0A5FD0F46064602F051F8804698
:1034800001F038FD02460B463046394601F0E4FBB8
:1034900008F1300805F8018B4D4506460F46E4D18A
:1034A000DDF848900022DDE916013A4B01F0D6FB29
:1034B00032463B4601F0F6FF002846D0159B0293AA
:1034C00015F8018CFFF742BB4FF000084646A8E60E
:1034D0000A9B079A9D1A0023FFF770BB189B0C9F4D
:1034E000C3F136030A9DFFF769BBDDE910784FF0A1
:1034F000020A6DE5079B002B3FF4B8AE0F9B002B33
:103500007FF7DEAE0022244B3846414601F058FDDD
:10351000074688460AF1010001F0ECFC3A464346B2
:1035200001F04EFD0022174B01F098FB029A0F9B11
:10353000013A05461592A1F15076129369E53922B8
:10354000B3463A70089E7D1CBFE4DDE916230020D7
:10355000104901F081FB32463B4601F0C1FF08B93A
:10356000AEE6154615F8013C6A1E302BF9D0D7E5BA
:10357000DDF84890159B0293FFF7E8BA0C97FFF728
:10358000A7BB00BF00001C400000144060590800A9
:10359000385908000000E03F00002440392BCDF8E6
:1035A00020B0D046DDF81CB09A46C8D0BBF1000F61
:1035B0003FF7C0AEC0E67FF4BFAE1AF0010F3FF494
:1035C000BBAEB3E64FF000084646E8E531460023BF
:1035D0000A22204600F098FD0F9B0646002B07DDCF
:1035E0000793FFF7ABBB249B022B1FDC0F9B3CE434
:1035F000249B022B1ADC0F9BF2E73FF481ABC0F156
:103600003C0011E4002520466564294600F04CFD8D
:103610004FF0FF3307930F93012304902595206407
:103620000B93FFF7E0B90125FFF7A8B90F9B0793AC
:10363000E8E500BF38B50A4C0A4D641BA4100AD057
:1036400004F18043013B05EB8305013C55F8043947
:103650009847002CF9D1BDE8384002F077BA00BF96
:103660005C5B0800585B0800F8B50C46234F064623
:1036700000F016FDBB68C4F57E615D680F3125F072
:103680000305294421F47F6121F00F01A1F5805445
:10369000B4F5805F07DB0021304601F0B7F9BB6865
:1036A0002B44984204D0304600F0FCFC0020F8BDCA
:1036B0006142304601F0AAF901300DD0104BBA68D2
:1036C00019682D1B45F001053046091B556019602E
:1036D00000F0E8FC0120F8BD0021304601F096F929
:1036E000BA68831A0F2BDEDD064C0549246843F0C7
:1036F0000103001B53600860D5E700BF0C070720DB
:10370000D40B0720140B0720002944D02DE9F041E9
:103710000D46804600F0C4FC55F8047C6949A5F1CB
:10372000080427F00103E2188E685068B24220F0C6
:1037300003005ED0FE0750600BD455F8087C01F101
:10374000080EE41BA5683B4475456DD0E768EF6043
:10375000BD6015186D68ED073ED543F0010262604B
:10376000E350B3F5007F17D20122DB0898104D68B3
:10377000134451F83370824001EBC3002A430838E8
:10378000E060A7604A6041F83340FC604046BDE815
:10379000F04100F087BC70475A0A042A52D89A09AF
:1037A00002F13907FF0002F13805C819CA59083873
:1037B00090424FD0516821F003018B4232D292687F
:1037C0009042F7D1C368A060E3609C60C46040464B
:1037D000BDE8F04100F066BC95683B4F0344BD4234
:1037E00040D0D06843F00102E86085606260E35039
:1037F000B7E7FF07034407D455F8085C641BE26889
:10380000A0682B44C2609060304A43F00100126807
:10381000606093428C60B9D32D4B40461968FFF726
:1038200023FFB3E71046CDE711184968C90744D410
:1038300091680344D26843F00100CA6091606060FF
:10384000E350A3E7142A16D802F15C07FF0002F147
:103850005B05AAE70123AA104D6893402B434B60F8
:103860000346B0E743F001024C610C61E560A560DE
:103870006260E3508AE7542A06D81A0B02F16F07F8
:10388000FF0002F16E0590E7B2F5AA7F06D8DA0BC9
:1038900002F17807FF0002F1770586E740F2545005
:1038A000824206D89A0C02F17D07FF0002F17C05E6
:1038B0007BE74FF47E777E2577E743F00101616077
:1038C000136063E70C07072014070720180B072075
:1038D000040C0720044A054B1268506B002808BFEF
:1038E0001846F030704700BF74010720A00507207C
:1038F0002DE9F04F01F10B06162E83B0054640F27C
:103900009E8036F0070600F1BD80B14200F2BA8019
:1039100000F0C6FBB6F5FC7FC0F08582730A00F0AC
:10392000B880042B00F26C81B30903F1390003F174
:10393000380EC100B84F39444C680839A14206D14D
:103940000CE0002A80F2AB80E468A14206D06368F4
:1039500023F003039A1B0F2AF3DD70463C69DFF85E
:10396000CCE2744500F09E81636823F003039A1B48
:103970000F2A00F38381002AC7F814E0C7F810E08B
:1039800080F29180B3F5007F80F054810122DB0842
:1039900079684FEAA30C134457F8338002FA0CF20B
:1039A00007EBC30C0A43ACF10801E160C4F80880DE
:1039B0007A6047F83340C8F80C40012483109C40DB
:1039C00094427DD8144206D120F0030064001442D2
:1039D00000F10400FAD007EBC009CC468046DCF8C1
:1039E0000C309C4507D15FE1002A80F26D81DB68D5
:1039F0009C4500F05981596821F003018A1B0F2A68
:103A0000F2DDDC68D3F808C046F0010828461E4401
:103A100042F00105C3F80480CCF80C40C4F808C09B
:103A20007E613E61C6F80CE0C6F808E075605A5049
:103A3000009300F037FB009B03F108041EE01029FF
:103A400020D800F02DFB102618230220724F3B4493
:103A50005C68A3F10802944200F02F816368E1687A
:103A600023F0030323445A68A66842F00102F16080
:103A700028468E605A6000F015FB0834204603B0DB
:103A8000BDE8F08F00240C2320462B6003B0BDE876
:103A9000F08F40204FF400714FF03F0E4AE723446F
:103AA0005A68E168E0E723445A68284642F0010278
:103AB0005A60083400F0F6FA204603B0BDE8F08FF3
:103AC000BC68636823F00308B04504D3A8EB060381
:103AD0000F2B00F38580DFF85891504BD9F8002068
:103AE0001B680132334404EB080A00F0548103F5EB
:103AF00080530F3323F47F6B2BF00F0B594628466E
:103B000000F084FF411C024600F0FB80824500F279
:103B1000F680434B19685944196000F04C81D9F87C
:103B2000000001301BBFA2EB0A0A5144C9F8002073
:103B3000196012F0070100F01481C1F10800C1F50D
:103B400080510244083102EB0B09C9F30B09A1EBC8
:103B50000909494628460193009200F057FF431C8B
:103B60009DE80C0000F04281801A484440F00100BA
:103B70001968BC424944BA601960506017D0B8F166
:103B80000F0F40F2FA804FF0050C6268A8F10C00AC
:103B900020F0070002F0010204EB000E02430F28A0
:103BA0006260CEF804C0CEF808C000F216811D4B4A
:103BB000BC681A68914288BF19601B4B1A68914211
:103BC000626888BF196022F003029642A2EB0603E6
:103BD00001D80F2B04DC284600F064FA00244DE7DE
:103BE00046F0010243F00103264462602846BE60AD
:103BF0000834736000F056FA204603B0BDE8F08F39
:103C0000142B70D9542B00F2A280330B03F16F00F8
:103C100003F16E0EC1008DE60C070720040C07208F
:103C2000D40B0720FC0B0720000C072014070720EB
:103C3000140B07205A0A042A5BD9142A00F2AE801A
:103C400002F15C01C9005B3207EB010C7958ACF161
:103C5000080C8C4500F088804A6822F003029342E9
:103C600073D289688C45F7D1DCF80C307A68E36050
:103C7000C4F808C09C60CCF80C409EE646F0010CED
:103C800042F001012644C4F804C028467E613E612A
:103C9000C6F80CE0C6F808E07160E25000F002FAE5
:103CA0000834EBE67A6888E608F1010818F0030F9B
:103CB0000CF1080C7FF493AE2DE0DC68A34208BF42
:103CC00002303FF44BAEC9E61C4619444A68DB6833
:103CD00054F8086F42F001024A602846F3609E6083
:103CE00000F0E0F9CAE603F15C0003F15B0EC100ED
:103CF00020E69A0902F13901C9003832A4E7BC4232
:103D000054D0BC68626822F003025EE759F80839B3
:103D1000994540F0868010F0030F00F1FF30F5D197
:103D20007B6823EA04037B6064009C423FF6C8AED4
:103D3000002C3FF4C5AE1C4240467FF44CAE6400FC
:103D40001C4200F10400FAD045E68C468CE7B3F53E
:103D5000AA7F15D8F30B03F1780003F1770EC100A9
:103D6000E8E54FF48051EEE601217B68921001FAFC
:103D700002F21A437A60634679E7012353602AE727
:103D800040F25452934222D8B30C03F17D0003F168
:103D90007C0EC100CEE503F1100BAFE6542A29D802
:103DA0001A0B02F16F01C9006E324DE7204B196802
:103DB00059441960B3E6CAF30B0000287FF4AFAE94
:103DC00008EB0B03BA6843F001035360EFE67F2072
:103DD0004FF47E714FF07E0EACE504F108012846E9
:103DE0000093FFF791FC009B1968E0E601204FF07B
:103DF0000009BDE6B2F5AA7F05D8DA0B02F1780119
:103E0000C900773220E740F254518A4205D89A0C13
:103E100002F17D01C9007C3216E74FF47E717E22EB
:103E200012E77B6880E7F00806F108030EE600BFA2
:103E3000D40B072082B049B15AB16BB113780B6033
:103E40001278101C18BF012002B0704701A9002A87
:103E5000F3D1104602B070476FF00100F4E700BFE5
:103E6000830770B4CDB23DD0541E0AB30378AB4281
:103E70001FD0431C05E014F1FF3419D30278AA4285
:103E800017D013F0030F184603F10103F3D1032CED
:103E900011D84CB30378AB420BD00444431C02E06E
:103EA0000278AA4205D09C42184603F10103F7D1DB
:103EB000002070BC7047090289B2294341EA0141E0
:103EC000036806464B40A3F1013222EA030313F0D4
:103ED000803F00F1040003D1043C032CF0D8D8E764
:103EE0003046D7E71446D2E72046E2E7844641EA67
:103EF000000313F0030349D1403A23D30B68036056
:103F00004B6843608B688360CB68C3600B69036157
:103F10004B6943618B698361CB69C3610B6A03623F
:103F20004B6A43628B6A8362CB6AC3620B6B036327
:103F30004B6B43638B6B8363CB6BC363403040310C
:103F4000403ADBD230320BD30B6803604B684360DE
:103F50008B688360CB68C36010301031103AF3D2A5
:103F60000C3205D351F8043B40F8043B043AF9D233
:103F7000043208D0D2071CBF11F8013B00F8013B06
:103F800001D30B8803806046704700BF082A13D313
:103F90008B07B1D010F00303AED0C3F10403D21AE3
:103FA000DB071CBF11F8013B00F8013BA4D331F83B
:103FB000023B20F8023B9FE7043AD9D3013A11F8BB
:103FC000013B00F8013BF9D20B7803704B7843704A
:103FD0008B788370604670478842F0B50DD98B1896
:103FE00098420AD28418002A51D0224613F8014D73
:103FF000994202F8014DF9D1F0BD0F2A48D941EAA2
:1040000000039B0746D1154600F1100401F110038F
:1040100053F8106C103D44F8106C53F80C6C0F2DD5
:1040200044F80C6C53F8086C04F1100444F8186C54
:1040300053F8046C03F1100344F8146CE8D8A2F1AF
:10404000100323F00F0302F00F0E1033BEF1030F25
:104050001944034421D90E4674461D1F56F8047BAB
:10406000043C032C45F8047FF8D8AEF1040424F096
:10407000030404342144234402F0030262B1013BEF
:104080000A4411F8014B8A4203F8014FF9D1F0BDFF
:104090000346F3E70346F2E7F0BD7246EEE700BFE2
:1040A000704700BF704700BFC36C70B505460C4633
:1040B0004BB153F8240080B1026843F82420002358
:1040C0000361C36070BD2122042100F091FDE8640A
:1040D00003460028EDD1002070BD012101FA04F64D
:1040E000721D2846920000F083FD0028F3D0446042
:1040F0008660E4E731B1C36C4A6853F82200086077
:1041000043F82210704700BFF0B50C4605464FF04B
:10411000000E0E6983B001F1140738680EF1010E2C
:1041200081B202FB0133010C180C02FB01019BB2AE
:1041300003EB0143764547F8043B4FEA1143ECDCBF
:104140003BB1A268964207DA04EB8602013653615E
:104150002661204603B0F0BD616828460131019315
:10416000FFF7A2FF0746226904F10C010232920018
:104170000C30FFF7BBFEEA6C6168019B52F821002E
:10418000206042F821403C46DEE700BF020C1204EA
:104190000346B2B90304102013F07F4F04BF1B0283
:1041A000083013F0704F04BF1B01043013F0404F70
:1041B00004BF9B000230002B02DB5B0003D42020F5
:1041C00070470020E8E70130704700BF03680146F0
:1041D00013F0070207D0DA0721D4980721D49B08EF
:1041E0000B600220704798B298B1104613F0FF0F91
:1041F00004BF1B0A08301A0704BF1B0904309A07C2
:1042000004BF9B080230DA0707D45B0804D12020E2
:1042100070471B0C1020E9E701300B60704700204D
:1042200070475B080B600120704700BF10B50C465B
:104230000121FFF739FF01224461026110BD00BF77
:104240002DE9F04F0C69156983B0AC428B461646D8
:1042500004DA2246B3462C460E461546DBF80830F3
:1042600004EB0508DBF804109845C8BF0131FFF7DF
:104270001BFF00F1140909EB880AD145009005D213
:104280004B46002143F8041B9A45FBD806F1140C59
:104290000CEB85030BF1140B9C450BEB840E4BD2FE
:1042A000CDF804A09A46DCF80050AFB2E7B14D4615
:1042B0005E46002156F8042B286893B284B2120C93
:1042C00007FB0343000C07FB02020B4402EB134104
:1042D0009BB243EA0143B64545F8043B4FEA11411E
:1042E000E8D82960DCF800502D0C1DD0D9F800303A
:1042F00048461C46594600220E88240C05FB0644FD
:104300009BB2224443EA024340F8043B51F8043B89
:1043100004681B0CA6B205FB03638E4503EB124336
:104320004FEA1342E8D803600CF1040CE24509F1AE
:104330000409B8D8DDF804A0B8F1000F0BDD5AF875
:10434000043CAAF1040A1BB105E05AF8043D13B974
:10435000B8F10108F9D10098C0F8108003B0BDE8A9
:10436000F08F00BF12F003032DE9F0411446074619
:104370002ED10D46A4101CD0BE6C96B3E3074FF0AF
:10438000000806D4641014D03068A8B10646E307CC
:10439000F8D5324629463846FFF752FFB5B16A686C
:1043A000FB6C641053F82210296043F82250054634
:1043B000EAD12846BDE8F081324631463846FFF75B
:1043C0003FFF3060C0F800800646E0E70546D9E7C9
:1043D0000B4A013B52F823200023FFF795FE0546C8
:1043E000C8E701213846FFF75FFE40F27121012244
:1043F0000023416102610646B8640360BEE700BF66
:10440000285A08002DE9F8430B69541104EB0308FE
:104410008B6808F101059D420E46914607464968A2
:1044200004DD5B009D4201F10101FADC3846FFF733
:104430003BFE002C00F1140306DD002103EB840297
:1044400043F8041B9A42FBD1346906F1140119F0B8
:104450001F0901EB840E1DD00022C9F1200C0C684D
:1044600004FA09F4144343F8044B51F8042B8E4525
:1044700022FA0CF2F3D81A600AB108F10205FB6CBB
:104480007268013D53F822100561316043F82260E3
:10449000BDE8F883043B51F8042B8E4543F8042F04
:1044A000F9D8ECE730B40B6905460069C01A0FD1A2
:1044B0009B001435143119442B4401E09D4207D26E
:1044C00053F8044D51F8042D9442F7D002D3012043
:1044D00030BC70474FF0FF30FAE700BF2DE9F84FCE
:1044E0000C69894611699246641A002C17D189001B
:1044F00009F1140702F114067B18314401E09F42D0
:1045000065D253F8045D51F8042D9542F7D067D277
:104510004B46BB46D14637469A46012405E061DB4F
:10452000002409F114070AF1140BD9F80410FFF75D
:10453000BBFD5D464FF00008D9F810E0DAF8103006
:104540003E46C4600BEB830C07EB8E0700F11404AE
:1045500056F8049B55F8042B1FFA89F343441FFABD
:1045600082F8120CA3EB0803C2EB194202EB2342C0
:104570009BB243EA0243AC4544F8043B4FEA22486D
:10458000E6D8B74217D9A446354655F8043B99B248
:1045900041440A1402EB134289B241EA0243AF429A
:1045A0004CF8043B4FEA2248EFD8F643374427F053
:1045B000030704373C44043C2BB954F8043D0EF186
:1045C000FF3E002BF9D0C0F810E0BDE8F88F0021C5
:1045D000FFF76AFD0122002302614361BDE8F88F05
:1045E000B346A2E74B4609F1140B02F114079146BA
:1045F00001249A4699E700BFF0B5012183B01C461B
:10460000C3F30A551646FFF74FFDC4F313040746DC
:104610000DB144F48014019406B302A840F8086D6B
:10462000FFF7D4FD002830D19DE80C007A61002B03
:104630000CBF01210221BB613961D5B9089A07EB92
:104640008103A0F2324010601869FFF79FFD099BBB
:10465000C0EB41101860384603B0F0BD01A8FFF769
:10466000B5FD0122019B114620303A617B61002D8E
:10467000E4D0A5F23343089A03441360099BC0F1C8
:1046800035001860384603B0F0BD019BC0F1200230
:10469000009903FA02F20A43C34001937A61C6E724
:1046A000002900F094802DE9F04F0C46154683B0A8
:1046B000804605F10B06FFF7F3FC54F804EC162EC8
:1046C0002EF00307A4F108093CD810221646B54283
:1046D0003DD8974243DAC64B09EB070099688842F8
:1046E00000F0C380436823F0010101444968C90711
:1046F0004DD51EF0010F00F09B8029464046FFF784
:10470000F7F8054600283BD054F8043CA0F1080215
:1047100023F001034B449A4200F02B813A1F242AD4
:1047200000F21881132A00F2EB800346224611683A
:1047300019605168596092689A6021464046FEF7B8
:10474000E3FF1DE026F00706002E3246BFDA002503
:104750000C232846C8F8003003B0BDE8F08F25468A
:10476000BB1B0F2BD9F804201DD802F001023A43DD
:1047700009EB0701C9F804204B6843F001034B60C3
:104780004046FFF78FFC284603B0BDE8F08F23F0CA
:104790000303F91891421DDBC36882682546D36084
:1047A0000F469A60DCE702F0010209EB060143F0D4
:1047B00001033243C9F804204F444B607B68083141
:1047C00043F001037B604046FEF79EFFD8E71146A9
:1047D000FFF78EB81EF0010F8FD154F8081CA9EB1B
:1047E000010ADAF8041021F003010B443B44934220
:1047F00026DB5546C16880683A1FC160886055F85D
:10480000080FDAF80C10242AC160886026D8132A11
:1048100040F2818021681B2ACAF808106168CAF832
:104820000C1000F2AD8004F108000AF1100274E0EF
:1048300054F8083CA9EB030ADAF8041021F003014C
:104840007B189342FFF659AF5546DAF80C1055F82D
:10485000080F3A1F242AC1608860D8D9214628460B
:104860001F46D146FFF7B8FB7AE7416806F1100012
:1048700021F0030BBB44834558DA1EF0010F7FF48F
:104880003CAF54F8081CA9EB010ADAF8041021F037
:1048900003018B445845D3DC5546DAF80C1055F823
:1048A000080F3A1F242AC160886000F28D80132A05
:1048B00040F2878021681B2ACAF808106168CAF88C
:1048C0000C1000F2888004F108010AF11002086857
:1048D00010604868506089689160ABEB06020AEB93
:1048E000060142F0010299604A60DAF8043040465D
:1048F00003F001031E43CAF80460FFF7D3FB42E74D
:1049000023681B2A03606368436027D800F108030B
:1049100004F108020BE720462A4601681F46116091
:104920004168D14651608368936019E7ABEB060B91
:1049300009EB06014BF0010299604A6054F8043C0F
:10494000404603F001031E4344F8046CFFF7AAFB42
:10495000254618E72146FFF73FFBEEE6A368242A29
:104960008360E368C36018D000F1100304F1100203
:10497000DDE650F8043C254623F003031F44EFE630
:10498000A168242ACAF81010E168CAF814100DD0E2
:1049900004F110000AF11802BFE7226900F11803C0
:1049A0000261616904F118024161C0E6226904F103
:1049B0001800CAF8182061690AF12002CAF81C1010
:1049C000ABE721462A4682E7214628460193FFF7B6
:1049D00003FB019B81E7A168242ACAF81010E16853
:1049E000CAF8141006D004F110010AF118026EE79B
:1049F0000C070720226904F11801CAF81820606921
:104A00000AF12002CAF81C0061E700BF38B5002394
:104A1000064C054608462360FCF7C0FA431C00D04C
:104A200038BD2368002BFBD02B6038BD080C072055
:104A30002DE9F04F936883B09046002B70D08246EA
:104A40000C4617688D68086842E0A38913F4906FDC
:104A50002ED06569216905EB4505A0EB010B05EB3F
:104A6000D5750BF101006D103044A8422A4684BF71
:104A700005462A465B0538D511465046FEF738FFF5
:104A800000283CD05A4621690190FFF72FFAA289ED
:104A9000019B22F4906242F08002A281A5EB0B02FE
:104AA00003EB0B006561B346354623612060A260CD
:104AB0005A464946FFF790FAD8F80830A2682068AD
:104AC000551B58449E1BA5602060C8F808603EB383
:104AD0007E683B460837002EFAD0AE42D3F80090ED
:104AE000AB46B2D23546B346E2E75046FFF7D8FDB3
:104AF00003460028D2D121695046FEF705FE0C235B
:104B000000224FF0FF30CAF80030A38943F0400381
:104B1000A381C8F80820C8F8042003B0BDE8F08FCE
:104B20000020C8F8040003B0BDE8F08F19B1FF2AD7
:104B300003D80A700121084670478A234FF0FF31DD
:104B40000360F8E72DE9F047274C074626688846BA
:104B5000D6F8484192469946002C3CD065681F2DF6
:104B60001ADC05F1010E7FB1012004EB8503C3F8C7
:104B700088A0D4F8881100FA05F21143022FC4F876
:104B80008811C3F8089120D00235C4F804E0002051
:104B900044F82580BDE8F087144B0BB34FF4C87080
:104BA000AFF300800446D8B10020D6F848314FF06A
:104BB000010E606023600546C6F84841C4F88801CC
:104BC000C4F88C01002FDFD0CEE7D4F88C311A4323
:104BD000C4F88C21D8E706F5A674C6F84841BDE7AD
:104BE0004FF0FF30BDE8F087B0580800000000002B
:104BF00010B502FB01F1FEF77BFE0446D8B150F878
:104C0000042C22F00302043A242A18D8132A14D9B7
:104C100000231B2A0360436016D9242A8360C360E3
:104C200011BF00F110020361436100F1180200237B
:104C3000136053609360204610BD0246F7E70021E1
:104C4000FCF712FA204610BD00F10802EFE700BFA2
:104C500081F0004102E000BF83F0004330B54FEA2D
:104C600041044FEA430594EA050F08BF90EA020F9A
:104C70001FBF54EA000C55EA020C7FEA645C7FEA2D
:104C8000655C00F0E2804FEA5454D4EB5555B8BF50
:104C90006D420CDD2C4480EA020281EA030382EAC1
:104CA000000083EA010180EA020281EA0303362D53
:104CB00088BF30BD11F0004F4FEA01314FF4801C26
:104CC0004CEA113102D0404261EB410113F0004F38
:104CD0004FEA03334CEA133302D0524263EB4303EF
:104CE00094EA050F00F0A780A4F10104D5F1200E8D
:104CF0000DDB02FA0EFC22FA05F2801841F10001E8
:104D000003FA0EF2801843FA05F359410EE0A5F1BB
:104D100020050EF1200E012A03FA0EFC28BF4CF0EC
:104D2000020C43FA05F3C01851EBE37101F00045A2
:104D300007D54FF0000EDCF1000C7EEB00006EEBAF
:104D40000101B1F5801F1BD3B1F5001F0CD3490839
:104D50005FEA30004FEA3C0C04F101044FEA445290
:104D600012F5800F80F09A80BCF1004F08BF5FEA17
:104D7000500C50F1000041EB045141EA050130BDF7
:104D80005FEA4C0C404141EB010111F4801FA4F19A
:104D90000104E9D191F0000F04BF01460020B1FAEF
:104DA00081F308BF2033A3F10B03B3F120020CDA27
:104DB0000C3208DD02F1140CC2F10C0201FA0CF005
:104DC00021FA02F10CE002F11402D8BFC2F1200C6A
:104DD00001FA02F120FA0CFCDCBF41EA0C01904020
:104DE000E41AA2BF01EB0451294330BD6FEA040469
:104DF0001F3C1CDA0C340EDC04F11404C4F1200254
:104E000020FA04F001FA02F340EA030021FA04F365
:104E100045EA030130BDC4F10C04C4F1200220FABC
:104E200002F001FA04F340EA0300294630BD21FAFA
:104E300004F0294630BD94F0000F83F4801306BFC0
:104E400081F480110134013D4EE77FEA645C18BFB4
:104E50007FEA655C29D094EA050F08BF90EA020F4B
:104E600005D054EA000C04BF1946104630BD91EA43
:104E7000030F1EBF0021002030BD5FEA545C05D146
:104E80004000494128BF41F0004130BD14F5800485
:104E90003CBF01F5801130BD01F0004545F0FE41F9
:104EA00041F470014FF0000030BD7FEA645C1ABF2E
:104EB000194610467FEA655C1CBF0B46024650EA65
:104EC000013406BF52EA033591EA030F41F4002191
:104ED00030BD00BF90F0000F04BF0021704730B517
:104EE0004FF4806404F132044FF000054FF00001EC
:104EF00050E700BF90F0000F04BF0021704730B5AD
:104F00004FF4806404F1320410F0004548BF404281
:104F10004FF000013EE700BF42004FEAE2014FEAD6
:104F200031014FEA02701FBF12F07F4393F07F4FB1
:104F300081F06051704792F0000F14BF93F07F4FE3
:104F4000704730B54FF4607401F0004521F0004126
:104F500020E700BF50EA010208BF704730B54FF0AC
:104F600000050AE050EA010208BF704730B511F0B1
:104F7000004502D5404261EB41014FF4806404F1E9
:104F800032045FEA915C3FF4DCAE4FF003025FEA6B
:104F9000DC0C18BF03325FEADC0C18BF033202EBF3
:104FA000DC02C2F1200300FA03FC20FA02F001FA4D
:104FB00003FE40EA0E0021FA02F11444C1E600BFEC
:104FC00070B54FF0FF0C4CF4E06C1CEA11541DBF9F
:104FD0001CEA135594EA0C0F95EA0C0F00F0DEF86A
:104FE0002C4481EA030621EA4C5123EA4C5350EA4F
:104FF000013518BF52EA033541F4801143F48013A0
:1050000038D0A0FB02CE4FF00005E1FB02E506F030
:105010000042E0FB03E54FF00006E1FB03569CF085
:10502000000F18BF4EF0010EA4F1FF04B6F5007F8B
:1050300064F5407404D25FEA4E0E6D4146EB0606FD
:1050400042EAC62141EA55514FEAC52040EA5E5086
:105050004FEACE2EB4F1FD0C88BFBCF5E06F1ED830
:10506000BEF1004F08BF5FEA500E50F1000041EB67
:10507000045170BD06F0004646EA010140EA020014
:1050800081EA0301B4EB5C04C2BFD4EB0C0541EA36
:10509000045170BD41F480114FF0000E013C00F34B
:1050A000AB8014F1360FDEBF002001F0004170BD6F
:1050B000C4F10004203C35DA0C341BDC04F1140488
:1050C000C4F1200500FA05F320FA04F001FA05F214
:1050D00040EA020001F0004221F0004110EBD370E1
:1050E00021FA04F642EB06015EEA430E08BF20EA0D
:1050F000D37070BDC4F10C04C4F1200500FA04F3B0
:1051000020FA05F001FA04F240EA020001F0004141
:1051100010EBD37041F100015EEA430E08BF20EAB4
:10512000D37070BDC4F1200500FA05F24EEA020EFC
:1051300020FA04F301FA05F243EA020321FA04F02B
:1051400001F0004121FA04F220EA020000EBD370E2
:105150005EEA430E08BF20EAD37070BD94F0000FE2
:105160000FD101F00046400041EB010111F4801F16
:1051700008BF013CF7D041EA060195F0000F18BFC7
:10518000704703F00046520043EB030313F4801F03
:1051900008BF013DF7D043EA0603704794EA0C0FBD
:1051A0000CEA135518BF95EA0C0F0CD050EA4106D3
:1051B00018BF52EA4306D1D181EA030101F0004150
:1051C0004FF0000070BD50EA410606BF1046194678
:1051D00052EA430619D094EA0C0F02D150EA013684
:1051E00013D195EA0C0F05D152EA03361CBF1046C5
:1051F00019460AD181EA030101F0004141F0FE4164
:1052000041F470014FF0000070BD41F0FE4141F4E7
:10521000780170BD70B54FF0FF0C4CF4E06C1CEAE7
:1052200011541DBF1CEA135594EA0C0F95EA0C0F9C
:1052300000F0A7F8A4EB050481EA030E52EA033557
:105240004FEA013100F088804FEA03334FF0805578
:1052500045EA131343EA12634FEA022245EA1115A5
:1052600045EA10654FEA00260EF000419D4208BF56
:10527000964244F1FD0404F5407402D25B084FEA03
:105280003202B61A65EB03055B084FEA32024FF4AF
:1052900080104FF4002CB6EB020E75EB030E22BF0C
:1052A000B61A754640EA0C005B084FEA3202B6EBCC
:1052B000020E75EB030E22BFB61A754640EA5C007B
:1052C0005B084FEA3202B6EB020E75EB030E22BF0B
:1052D000B61A754640EA9C005B084FEA3202B6EB0C
:1052E000020E75EB030E22BFB61A754640EADC00CB
:1052F00055EA060E18D04FEA051545EA16754FEA2D
:1053000006164FEAC30343EA52734FEAC2025FEA4A
:105310001C1CC0D111F4801F0BD141EA00014FF0D9
:1053200000004FF0004CB6E711F4801F04BF0143AA
:105330000020B4F1FD0C88BFBCF5E06F3FF6AFAEC6
:10534000B5EB030C04BFB6EB020C5FEA500C50F156
:10535000000041EB045170BD0EF0004E4EEA1131D9
:1053600014EB5C04C2BFD4EB0C0541EA045170BDE0
:1053700041F480114FF0000E013C90E645EA060E24
:105380008DE60CEA135594EA0C0F08BF95EA0C0F52
:105390003FF43BAF94EA0C0F0AD150EA01347FF49A
:1053A00034AF95EA0C0F7FF425AF104619462CE771
:1053B00095EA0C0F06D152EA03353FF4FDAE1046D4
:1053C000194622E750EA410618BF52EA43067FF425
:1053D000C5AE50EA41047FF40DAF52EA43057FF4B5
:1053E000EBAE12E74FF0FF3C06E000BF4FF0010CC0
:1053F00002E000BF4FF0010C4DF804CD4FEA410C24
:105400007FEA6C5C4FEA430C18BF7FEA6C5C1BD0F0
:1054100001B050EA410C0CBF52EA430C91EA030F71
:1054200002BF90EA020F0020704710F1000F91EACE
:10543000030F58BF994208BF90422CBFD8176FEA9C
:10544000E37040F0010070474FEA410C7FEA6C5C6A
:1054500002D150EA013C07D14FEA430C7FEA6C5C71
:10546000D6D152EA033CD3D05DF8040B704700BF9D
:105470008446104662468C461946634600E000BFEB
:1054800001B5FFF7B7FF002848BF10F1000F01BDBD
:105490004DF808EDFFF7F4FF0CBF012000205DF888
:1054A00008FB00BF4DF808EDFFF7EAFF34BF01200D
:1054B00000205DF808FB00BF4DF808EDFFF7E0FFA6
:1054C00094BF012000205DF808FB00BF4DF808EDF7
:1054D000FFF7CEFF94BF012000205DF808FB00BF5E
:1054E0004DF808EDFFF7C4FF34BF012000205DF840
:1054F00008FB00BF4FEA410C7FEA6C5C02D150EA26
:10550000013C0AD14FEA430C7FEA6C5C02D152EABB
:10551000033C02D14FF0000070474FF0010070478C
:105520004FEA410212F5001215D211D56FF47873CB
:10553000B3EB625212D94FEAC12343F0004343EA6E
:10554000505311F0004F23FA02F018BF4042704749
:105550004FF00000704750EA013005D111F00040D3
:1055600008BF6FF0004070474FF00000704700BF69
:1055700053B94AB9002908BF00281CBF4FF0FF31BA
:105580004FF0FF3000F07AB9ADF1080C6DE904CEB0
:1055900000F006F8DDF804E0DDE9022304B070470E
:1055A0002DE9F0478C460E460446089D002B50D14D
:1055B0008A4217466CD9B2FA82FEBEF1000F0BD0B8
:1055C000CEF1200C01FA0EF620FA0CFC02FA0EF7CE
:1055D0004CEA060C00FA0EF43A0CBCFBF2F9BBB232
:1055E00002FB19CC09FB03FA4FEA144848EA0C46BF
:1055F000B2450AD9F61909F1FF3180F02581B2458B
:1056000040F22281A9F102093E44A6EB0A06B6FB4C
:10561000F2F002FB106600FB03F3A4B244EA064476
:10562000A34209D9E41900F1FF3280F00B81A342B3
:1056300040F2088102383C440021E41A40EA094063
:10564000002D62D0002324FA0EF42C606B60BDE8BC
:10565000F0878B4207D9002D55D0002185E8410005
:105660000846BDE8F087B3FA83F1002940F08F8047
:10567000B34202D3824200F2FC80841A66EB030636
:105680000120B446002D40D085E81010BDE8F08719
:1056900012B90127B7FBF2F7B7FA87FEBEF1000F88
:1056A00035D10121F61B4FEA174C1FFA87F8B6FBDC
:1056B000FCF20CFB126608FB02F0230C43EA0646E0
:1056C000B04207D9F61902F1FF3302D2B04200F21C
:1056D000D2801A46361AB6FBFCF00CFB106608FBAB
:1056E00000F8A3B243EA0644A04507D9E41900F143
:1056F000FF3302D2A04500F2B9801846A4EB08049B
:1057000040EA02409CE729462846BDE8F08707FAB0
:105710000EF7CEF1200326FA03F24FEA174CB2FB44
:10572000FCF11FFA87F80CFB112206FA0EF620FA9C
:1057300003F301FB08F933431E0C46EA0246B14568
:1057400000FA0EF409D9F61901F1FF3280F08C80CD
:10575000B14540F2898002393E44A6EB0906B6FB0A
:10576000FCF00CFB106200FB08F99EB246EA024610
:10577000B14507D9F61900F1FF3371D2B1456FD9A0
:1057800002383E44A6EB090640EA01418FE7C1F129
:10579000200722FA07F88B4048EA030326FA07F4A9
:1057A0004FEA134EB4FBFEF91FFA83FC0EFB1944BB
:1057B0008E4020FA07F809FB0CFA48EA06084FEA7F
:1057C000184646EA0444A24502FA01F200FA01F63C
:1057D00008D9E41809F1FF3044D2A24542D9A9F111
:1057E00002091C44A4EB0A04B4FBFEF00EFB1044B7
:1057F00000FB0CFC1FFA88F848EA0444A44507D9CA
:10580000E41800F1FF3E29D2A44527D902381C44F0
:1058100040EA0940A0FB0289A4EB0C0CCC45C2462F
:10582000CE4615D312D055B1B6EB0A036CEB0E067B
:1058300006FA07F7CB401F43CE402F606E60002171
:10584000BDE8F0871046F7E68946DEE64645EAD22F
:10585000B8EB020A69EB030E0138E4E77046D7E7BC
:1058600018468FE78146BDE7114676E702383C448B
:1058700044E7084606E7023A3E442BE7704700BF7C
:105880002564000001000000020000000400000088
:105890000800000010000000200000004000000090
:1058A0008000000000010000000200000004000071
:1058B00078010720494E4600696E66004E414E0051
:1058C0006E616E003031323334353637383941420B
:1058D000434445460000000030313233343536371A
:1058E000383961626364656600000000286E756C7B
:1058F0006C290000300000002020202020202020E3
:105900002020202020202020303030303030303017
:105910003030303030303030496E66696E697479BD
:10592000000000004E614E0043000000504F5349FC
:10593000580000002E0000000080E03779C341438A
:10594000176E05B5B5B89346F5F93FE9034F384DE5
:10595000321D30F94877825A3CBF737FDD4F157591
:10596000000000000000F03F0000000000002440A4
:1059700000000000000059400000000000408F407F
:10598000000000000088C34000000000006AF840EA
:105990000000000080842E4100000000D01263410E
:1059A0000000000084D797410000000065CDCD4184
:1059B000000000205FA00242000000E87648374265
:1059C000000000A2941A6D42000040E59C30A24203
:1059D0000000901EC4BCD64200003426F56B0C4378
:1059E0000080E03779C3414300A0D885573476431F
:1059F00000C84E676DC1AB43003D9160E458E14380
:105A0000408CB5781DAF154450EFE2D6E41A4B44F4
:105A100092D54D06CFF08044F64AE1C7022DB54439
:105A2000B49DD9794378EA440500000019000000CC
:105A30007D00000000202020202020202020282879
:105A4000282828202020202020202020202020203E
:105A5000202020202088101010101010101010107E
:105A600010101010100404040404040404040410AE
:105A7000101010101010414141414141010101013C
:105A80000101010101010101010101010101010106
:105A90001010101010104242424242420202020212
:105AA00002020202020202020202020202020202D6
:105AB0001010101020000000000000000000000086
:105AC00000000000000000000000000000000000D6
:105AD00000000000000000000000000000000000C6
